:1000000002308A00232A0000FF00030E8301A100B2
:100010000A08A0008A010408A2007708A300780853
:10002000A4007908A5007A08A600831383120B1E8A
:100030001B288B182C28220884002308F70024088A
:10004000F8002508F9002608FA0020088A00210E89
:100050008300FF0E7F0E09008A110A12D828533040
:10006000840083170008031942280630F800F701BE
:10007000F70B3828F80B37287B30F700F70B3E28B2
:10008000800B3528080003175808F8015702031899
:100090004C285708F7005828F7010830D900D70D29
:1000A000F70D580877020318F700F80DD90B4F2801
:1000B00003130800780803175508D7006430D800E8
:1000C0000313432077080317D50078083030031D49
:1000D0007028D61C7A28D6197A28561A2030732808
:1000E000D61156125614F807780803130C1E7628FA
:1000F000990003175508D7000A30D800031343208E
:1001000077080317D50078083030031D8D28D619DD
:100110009428561C9428561A2030F80778080313A0
:100120000C1E9028990003173030D507550803138B
:100130000C1E982899000800831603178C170C14BE
:100140000000000083120C087F390319D628D30061
:100150000D08D4000F08D500530803130C1EAE2859
:100160009900031754088D0055088F0083168C17CB
:100170000C140000000083120C0D0E0D7F390319C2
:10018000D628D3000D08D4000F08D5005308031358
:100190000C1EC8289900031754088D0055088F00BD
:1001A0008D0A03198F0A03139C28031703130800F1
:1001B000C8300317D30003132F20AE012E083F3C95
:1001C000031C4B2910302E0784008317000B1129C4
:1001D00001302E070317D300013003132E07031736
:1001E000D4005308D5001B30D60003135A203B30EF
:1001F0000C1EF828990003175408D5001B30D600B0
:1002000003135A200D300C1E032999000A300C1ECE
:1002100007299900C8300317D30003132F2001309A
:10022000AF0710302E07840083178008031D242990
:10023000103003178D0002308F0003139C20C8304C
:100240000317D30003132F2033302E0784008313AA
:1002500000080317D300103003132E078400831700
:1002600000080317530203194829103003132E07FF
:1002700084008317000B3E292E08F50010302E074E
:10028000840083178008031D47292E08F4000317F4
:100290000313AE0ADE28133003178D0002308F00DF
:1002A00003139C20C8300317D30003132F203008FA
:1002B0002F0203185F292A08F5000130B002E20876
:1002C000031964290030652901300317D300031393
:1002D000EA0803196D2900306E2901300317D30590
:1002E0003F0B73297529003076290130D305470B60
:1002F0007A297C2900307D290130530503198E2984
:100300000130F30017308D0002308F0003139C2062
:10031000C8300317D30003132F2003170313CA0891
:10032000031994290030952901300317D3000313D2
:10033000D20803199D2900309E2901300317D305E7
:10034000270BA329A5290030A6290130D3052F0B9F
:10035000AA29AC290030AD29013053050319BE2963
:100360000130F3001B308D0002308F0003139C20FE
:10037000C8300317D30003132F200317730BC129B1
:10038000E62901307407D30001307507D400530803
:10039000D5001B30D60003135A203B300C1ECE294B
:1003A000990003175408D5001B30D60003135A20B8
:1003B0000D300C1ED92999000A300C1EDD29990038
:1003C000C8300317D30003132F2003170313AE0104
:1003D0002E083F3C031C092A33302E07F800FA018F
:1003E0000318FA0A78080317D3007A08D4001030EB
:1003F00003132E078400831700080317D500530842
:100400008400831354188317550880000313AE0A21
:10041000E829AB01F301AF018B108A110A121B28E6
:10042000B01DB0060A00381C3B1CB8060A00B61AFC
:100430003B1BB6060A00B61B3B1BB8060A00B81BDE
:100440003B1CB7060A00840183131F3083058130EB
:1004500083169900A6309800903083129800AA0164
:10046000AB01AC01AF012030B000B101B201F3012A
:1004700083161F149F141F159F1107309C008312B1
:10048000A801A9010130B300B400B501B601B7015C
:10049000B801B900BA00BB00BC00BD01BE01BF017C
:1004A000C001C100C200C300C400C501C601C7012C
:1004B000C801C900CA00CB00CC00CD01CE01CF01DC
:1004C000D001D100D200D300D400D501D601D7018C
:1004D000D801D900DA00DB00DC00DD01DE01DF013C
:1004E000E001E100E200E300E400E501E601E701EC
:1004F000E801E900EA00EB00EC00ED01EE01EF019C
:10050000F001F101F201F401F501F6010317900089
:100510009100920193019401950196009700980033
:1005200099009A019B019C019D019E009F00A000E3
:10053000A100A201A301A401A501A600A700A80093
:10054000A900AA01AB01AC01AD01AE00AF00B00043
:10055000B100B201B301B401B501B600B700B800F3
:10056000B900BA01BB01BC01BD01BE00BF00C000A3
:10057000C100C201C301C401C501C600C700C80053
:10058000C900CA01CB01CC01CD01CE01CF010313BB
:100590000B16C0308B04E130831686008130880052
:1005A0008312B208031DD82A86100611861106127E
:1005B000320BDE2A86100611861106163208023C1E
:1005C000031DE62A86100611861506123208033C22
:1005D000031DEE2A86100611861506163208043C05
:1005E000031DF62A86100615861106123208053CF0
:1005F000031DFE2A86100615861106163208063CD3
:10060000031D062B86100615861506123208073CB8
:10061000031D0E2B86100615861506163208083C9B
:10062000031D162B86140611861106123208093C8A
:10063000031D1E2B861406118611061632080A3C6D
:10064000031D262B861406118615061232080B3C54
:10065000031D2E2B861406118615061632080C3C37
:10066000031D362B861406158611061232080D3C22
:10067000031D3E2B861406158611061632080E3C05
:10068000031D462B861406158615061232080F3CEC
:10069000031D4E2B8614061586150616861B552B34
:1006A000A0303207840083138001861F5F2B013046
:1006B000AC07A03032078400831301308000061B92
:1006C000672B10303207A03E840083138001061F81
:1006D000722B0130AC0710303207A03E8400831328
:1006E00001308000861A7A2B20303207A03E840029
:1006F00083138001861E852B0130AC072030320722
:10070000A03E840083130130800008188D2B303008
:100710003207A03E840083138001081C982B01300F
:10072000AC0730303207A03E8400831301308000D4
:10073000881FE52BA7018B1BA7178B13C830031746
:10074000D30003132F20A71B8B171F3003178D0017
:1007500002308F000313A7018B1BA7178B139C205C
:10076000A71B8B170130B100AD012D083F3C031CC6
:10077000DE2B10302D0784008317000BC12B0130B6
:10078000AF0733302D07F800FA010318FA0A78088A
:100790000317D0007A08D100103003132D0784000E
:1007A000831700080317D2005008840083135118E0
:1007B0008317520880000313AD0AB52B30082F02AF
:1007C0000318E42B0130B002AF01A03032078400DF
:1007D000831300080317D00010300313320784007E
:1007E0008317000803175002031DF82B0030F92B64
:1007F0000130D000A0300313320784008313800837
:100800000319042C0030052C01300317D005031305
:10081000310B0B2C0D2C00300E2C01300317500522
:100820000319172C03133208AA00B1010317103063
:1008300003133207A03E8400831300080317D0007F
:10084000103003133207103E84008317000803178B
:100850005002031D2D2C00302E2C0130D000103002
:1008600003133207A03E84008313800803193A2C37
:1008700000303B2C01300317D0050313310B412C02
:10088000432C0030442C01300317500503194E2C23
:10089000103003133207AA00B101031720300313ED
:1008A0003207A03E8400831300080317D0002030D5
:1008B00003133207103E8400831700080317500209
:1008C000031D642C0030652C0130D0002030031350
:1008D0003207A03E8400831380080319712C003076
:1008E000722C01300317D0050313310B782C7A2CAE
:1008F00000307B2C0130031750050319852C203064
:1009000003133207AA00B101031730300313320773
:10091000A03E8400831300080317D0003030031377
:100920003207103E84008317000803175002031D8E
:100930009B2C00309C2C0130D00030300313320748
:10094000A03E8400831380080319A82C0030A92C32
:1009500001300317D0050313310BAF2CB12C00303D
:10096000B22C0130031750050319BC2C303003138F
:100970003207AA00B101031701300313B20732088E
:10098000103C031DE72CAD012D083F3C031CE62C59
:1009900010302D07F8000130FA000318FA0A780821
:1009A0000317D0007A08D100A03003132D0784006C
:1009B000831300080317D2005008840083135118D2
:1009C0008317520880000313AD0AC42CB201D12A48
:0209D0006300C2
:02400E00723FFF
:00000001FF
;PIC16F877A
;CRC=5CF0  CREATED="12-sep-16 15:54"
