:1000000002308A00142A0000FF00030E8301A100C1
:100010000A08A0008A010408A2007708A300780853
:10002000A4007908A5007A08A600831383120B1E8A
:100030001B288B182C28220884002308F70024088A
:10004000F8002508F9002608FA0020088A00210E89
:100050008300FF0E7F0E09008A110A12D828533040
:10006000840083170008031942280630F800F701BE
:10007000F70B3828F80B37287B30F700F70B3E28B2
:10008000800B3528080003175808F8015702031899
:100090004C285708F7005828F7010830D900D70D29
:1000A000F70D580877020318F700F80DD90B4F2801
:1000B00003130800780803175508D7006430D800E8
:1000C0000313432077080317D50078083030031D49
:1000D0007028D61C7A28D6197A28561A2030732808
:1000E000D61156125614F807780803130C1E7628FA
:1000F000990003175508D7000A30D800031343208E
:1001000077080317D50078083030031D8D28D619DD
:100110009428561C9428561A2030F80778080313A0
:100120000C1E9028990003173030D507550803138B
:100130000C1E982899000800831603178C170C14BE
:100140000000000083120C087F390319D628D30061
:100150000D08D4000F08D500530803130C1EAE2859
:100160009900031754088D0055088F0083168C17CB
:100170000C140000000083120C0D0E0D7F390319C2
:10018000D628D3000D08D4000F08D5005308031358
:100190000C1EC8289900031754088D0055088F00BD
:1001A0008D0A03198F0A03139C28031703130800F1
:1001B000C8300317D30003132F20AE012E083F3C95
:1001C000031C412910302E0784008317000B0C29D3
:1001D00001302E070317D300013003132E07031736
:1001E000D4005308D5001B30D60003135A203B30EF
:1001F0000C1EF828990003175408D5001B30D600B0
:1002000003135A200D300C1E032999000A300C1ECE
:10021000072999000130AF0710302E07840083179B
:100220008008031D1A29013003178D0002308F004A
:1002300003139C2033302E07840083130008031718
:10024000D300103003132E07840083170008031710
:10025000530203193E29103003132E07840083171D
:10026000000B34292E08F50010302E078400831768
:100270008008031D3D292E08F40003170313AE0A5E
:10028000DE28043003178D0002308F0003139C20FA
:1002900030082F02031850292A08F5000130B00257
:1002A000E208031955290030562901300317D300FD
:1002B0000313EA0803195E2900305F290130031790
:1002C000D3053F0B64296629003067290130D30527
:1002D000470B6B296D2900306E2901305305031936
:1002E0007F290130F30008308D0002308F000313A6
:1002F0009C20C8300317D30003132F2003170313C8
:10030000CA08031985290030862901300317D30054
:100310000313D20803198E2900308F2901300317E7
:10032000D305270B94299629003097290130D3054E
:100330002F0B9B299D2900309E290130530503195D
:10034000AF290130F3000C308D0002308F00031311
:100350009C20C8300317D30003132F200317730BFF
:10036000B229D72901307407D30001307507D400B2
:100370005308D5001B30D60003135A203B300C1E07
:10038000BF29990003175408D5001B30D60003136A
:100390005A200D300C1ECA2999000A300C1ECE2995
:1003A0009900C8300317D30003132F20031703133A
:1003B000AE012E083F3C031CFA2933302E07F8000B
:1003C000FA010318FA0A78080317D3007A08D40050
:1003D000103003132E078400831700080317D5007D
:1003E000530884008313541883175508800003139F
:1003F000AE0AD929AB01F301AF018B108A110A12A1
:100400001B28B01DB0060A00381C3B1CB8060A00A9
:10041000B61A3B1BB6060A00B61B3B1BB8060A0001
:10042000B81B3B1CB7060A00840183131F308305E9
:10043000813083169900A63098009030831298007E
:10044000AA01AB01AC01AF012030B000B101B20193
:10045000F30183161F149F141F159F1107309C0072
:100460008312A801A9010130B300B400B501B6019F
:10047000B701B801B900BA00BB00BC00BD01BE01A4
:10048000BF01C001C100C200C300C400C501C60154
:10049000C701C801C900CA00CB00CC00CD01CE0104
:1004A000CF01D001D100D200D300D400D501D601B4
:1004B000D701D801D900DA00DB00DC00DD01DE0164
:1004C000DF01E001E100E200E300E400E501E60114
:1004D000E701E801E900EA00EB00EC00ED01EE01C4
:1004E000EF01F001F101F201F401F501F60103174A
:1004F000900091009201930194019501960097005C
:10050000980099009A019B019C019D019E009F000B
:10051000A000A100A201A301A401A501A600A700BB
:10052000A800A900AA01AB01AC01AD01AE00AF006B
:10053000B000B100B201B301B401B501B600B7001B
:10054000B800B900BA01BB01BC01BD01BE00BF00CB
:10055000C000C100C201C301C401C501C600C7007B
:10056000C800C900CA01CB01CC01CD01CE01CF0129
:1005700003130B16C0308B0483168113E130860001
:10058000813088008312B208031DCA2A8610061122
:1005900086110612320BD02A861006118611061615
:1005A0003208023C031DD82A861006118615061251
:1005B0003208033C031DE02A861006118615061634
:1005C0003208043C031DE82A86100615861106121F
:1005D0003208053C031DF02A861006158611061602
:1005E0003208063C031DF82A8610061586150612E9
:1005F0003208073C031D002B8610061586150616CB
:100600003208083C031D082B8614061186110612B9
:100610003208093C031D102B86140611861106169C
:1006200032080A3C031D182B861406118615061283
:1006300032080B3C031D202B861406118615061666
:1006400032080C3C031D282B861406158611061251
:1006500032080D3C031D302B861406158611061634
:1006600032080E3C031D382B86140615861506121B
:1006700032080F3C031D402B8614061586150616FE
:10068000861B472BA0303207840083138001861F0E
:10069000512B0130AC07A0303207840083130130A6
:1006A0008000061B592B10303207A03E84008313B4
:1006B0008001061F642B0130AC0710303207A03ECA
:1006C0008400831301308000861A6C2B203032079F
:1006D000A03E840083138001861E772B0130AC0777
:1006E00020303207A03E84008313013080000818B8
:1006F0007F2B30303207A03E840083138001081C1A
:100700008A2B0130AC0730303207A03E84008313BF
:1007100001308000881FD72BA7018B1BA7178B13D5
:10072000C8300317D30003132F20A71B8B171030DB
:1007300003178D0002308F000313A7018B1BA7172F
:100740008B139C20A71B8B170130B100AD012D0826
:100750003F3C031CD02B10302D0784008317000B67
:10076000B32B0130AF0733302D07F800FA0103181F
:10077000FA0A78080317D0007A08D1001030031362
:100780002D078400831700080317D2005008840047
:10079000831351188317520880000313AD0AA72B47
:1007A00030082F020318D62B0130B002AF01A03061
:1007B00032078400831300080317D000103003139E
:1007C000320784008317000803175002031DEA2B29
:1007D0000030EB2B0130D000A0300313320784002F
:1007E000831380080319F62B0030F72B0130031711
:1007F000D0050313310BFD2BFF2B0030002C0130F3
:10080000031750050319092C03133208AA00B1017C
:100810000317103003133207A03E8400831300082F
:100820000317D000103003133207103E84008317E3
:10083000000803175002031D1F2C0030202C01302C
:10084000D000103003133207A03E840083138008C9
:1008500003192C2C00302D2C01300317D005031365
:10086000310B332C352C0030362C0130031750055A
:100870000319402C103003133207AA00B1010317EB
:10088000203003133207A03E8400831300080317AF
:10089000D000203003133207103E84008317000875
:1008A00003175002031D562C0030572C0130D00086
:1008B000203003133207A03E8400831380080319FD
:1008C000632C0030642C01300317D0050313310B67
:1008D0006A2C6C2C00306D2C013003175005031965
:1008E000772C203003133207AA00B10103173030F0
:1008F00003133207A03E8400831300080317D000BF
:10090000303003133207103E8400831700080317AA
:100910005002031D8D2C00308E2C0130D000303061
:1009200003133207A03E84008313800803199A2C16
:1009300000309B2C01300317D0050313310BA12C81
:10094000A32C0030A42C0130031750050319AE2C42
:10095000303003133207AA00B1010317013003132B
:10096000B2073208103C031DD92CAD012D083F3CC5
:10097000031CD82C10302D07F8000130FA000318A2
:10098000FA0A78080317D0007A08D100A0300313C0
:100990002D078400831300080317D2005008840039
:1009A000831351188317520880000313AD0AB62C25
:0609B000B201C32A63003E
:02400E00713F00
:00000001FF
;PIC16F877A
;CRC=FF90  CREATED="02-may-16 12:03"
