:1000000000308A001B28000023308400831300087E
:10001000031918280130F800F701F70B0D28F80B29
:100020000C284A30F700F70B13281628800B0A28F3
:100030008A110A123928840183131F30830583161D
:100040001F149F141F159F1107309C008312A101DC
:1000500083168113013086008312A108031D342802
:1000600086140611861106160830A200FA30A30085
:100070000428A20B3628210B412886140615861168
:0A00800006160130A1072D286300C9
:02400E00713F00
:00000001FF
;PIC16F877A
;CRC=4401  CREATED="08-ene-16 13:11"
