:1000000001308A00C7290000FF00030E8301A10010
:100010000A08A0008A010408A2007708A300780853
:10002000A4007908A5007A08A600831383120B1E8A
:100030001B288B182C28220884002308F70024088A
:10004000F8002508F9002608FA0020088A00210E89
:100050008300FF0E7F0E09008A110A12D82883162A
:1000600003178C170C140000000083120C087F3952
:1000700003196928D3000D08D4000F08D5005308D0
:1000800003130C1E41289900031754088D005508CE
:100090008F0083168C170C140000000083120C0DC7
:1000A0000E0D7F3903196928D3000D08D4000F08FD
:1000B000D500530803130C1E5B289900031754083E
:1000C0008D0055088F008D0A03198F0A03132F28FE
:1000D0000317031308005330840083170008031923
:1000E0007E280630F800F701F70B7428F80B732808
:1000F0007B30F700F70B7A28800B71280800031774
:100100005608F8015502031888285508F700942866
:10011000F7010830D700D50DF70D56087702031800
:10012000F700F80DD70B8B28031308007808031786
:100130005308D5006430D60003137F2077080317D7
:10014000D30078083030031DAC28D41CB628D4194D
:10015000B628541A2030AF28D41154125414F8077A
:10016000780803130C1EB228990003175308D50012
:100170000A30D60003137F2077080317D3007808CE
:100180003030031DC928D419D028541CD028541A43
:100190002030F807780803130C1ECC2899000317A9
:1001A0003030D307530803130C1ED42899000800DD
:1001B000AD012D083F3C031C0C2910302D07840095
:1001C0008317000BE5280130AE0732302D0784007D
:1001D000831300080317D300103003132D07840086
:1001E000831700080317530203190929103003135A
:1001F0002D0784008317000BFF282D08F400103012
:100200002D07840083178008031D08292D08F3009B
:1002100003170313AD0AD9282F082E020318142937
:100220002908F4000130AF02E10803191929003050
:100230001A2901300317D3000313E90803192229EF
:100240000030232901300317D3053F0B28292A2921
:1002500000302B290130D305470B2F2931290030DD
:10026000322901305305031943290130F200BF3010
:100270008D0001308F0003132F20C8300317D300E7
:1002800003136B2003170313C9080319492900300E
:100290004A2901300317D3000313D1080319522947
:1002A0000030532901300317D305270B58295A2949
:1002B00000305B290130D3052F0B5F296129003005
:1002C000622901305305031973290130F200C3304C
:1002D0008D0001308F0003132F20C8300317D30087
:1002E00003136B200317720B762995297308D3002B
:1002F0001B30D400031396203B300C1E7D2999003F
:1003000074080317D3001B30D400031396200D305C
:100310000C1E882999000A300C1E8C299900C830BF
:100320000317D30003136B2003170313AD012D082C
:100330003F3C031CB82932302D07F800FA0103189E
:10034000FA0A78080317D3007A08D4001030031390
:100350002D078400831700080317D5005308840075
:10036000831354188317550880000313AD0A972987
:10037000AA01F201AE018B108A110A121B28361A4B
:100380003B1BB5060A00361B3B1BB7060A0084015F
:1003900083131F308305813083169900A63098009F
:1003A000903083129800A901AA01AB01AE01203060
:1003B000AF00B001B101F20183161F149F141F1585
:1003C0009F1107309C008312A701A8010130B200E1
:1003D000B300B401B501B601B701B800B900BA0065
:1003E000BB00BC01BD01BE01BF01C000C100C20015
:1003F000C300C401C501C601C701C800C900CA00C5
:10040000CB00CC01CD01CE01CF01D000D100D20074
:10041000D300D401D501D601D701D800D900DA0024
:10042000DB00DC01DD01DE01DF01E000E100E200D4
:10043000E300E401E501E601E701E800E900EA0084
:10044000EB00EC01ED01EE01EF01F001F101F30130
:10045000F401F501031790009100920193019401BA
:10046000950196009700980099009A019B019C01C4
:100470009D019E009F00A000A100A201A301A40174
:10048000A501A600A700A800A900AA01AB01AC0124
:10049000AD01AE00AF00B000B100B201B301B401D4
:1004A000B501B600B700B800B900BA01BB01BC0184
:1004B000BD01BE00BF00C000C100C201C301C40134
:1004C000C501C600C700C800C900CA01CB01CC01E4
:1004D000CD01CE01CF0103130B16C0308B04831660
:1004E0008113E1308600813088008312B108031D3A
:1004F0007D2A8610061186110612310B832A86107A
:100500000611861106163108023C031D8B2A86103F
:100510000611861506123108033C031D932A861026
:100520000611861506163108043C031D9B2A861009
:100530000615861106123108053C031DA32A8610F4
:100540000615861106163108063C031DAB2A8610D7
:100550000615861506123108073C031DB32A8610BE
:100560000615861506163108083C031DBB2A86149D
:100570000611861106123108093C031DC32A861490
:1005800006118611061631080A3C031DCB2A861473
:1005900006118615061231080B3C031DD32A86145A
:1005A00006118615061631080C3C031DDB2A86143D
:1005B00006158611061231080D3C031DE32A861428
:1005C00006158611061631080E3C031DEB2A86140B
:1005D00006158615061231080F3C031DF32A8614F2
:1005E000061586150616861BFA2AA03031078400E8
:1005F00083138001861F042B0130AB07A030310725
:100600008400831301308000061B0C2B103031074F
:10061000A03E840083138001061F172B0130AB0717
:1006200010303107A03E8400831301308000861A09
:100630001F2B20303107A03E840083138001861ECB
:100640002A2B0130AB0720303107A03E84008313F2
:10065000013080000818322B30303107A03E840072
:1006600083138001081C3D2B0130AB07303031076C
:10067000A03E8400831301308000881F722B01305C
:10068000B000AC012C083F3C031C6B2B10302C0736
:1006900084008317000B4E2B0130AE0732302C073D
:1006A000F800FA010318FA0A78080317D0007A084C
:1006B000D100103003132C078400831700080317A0
:1006C000D200500884008313511883175208800009
:1006D0000313AC0A422B2F082E020318712B013092
:1006E000AF02AE01A0303107840083130008031766
:1006F000D00010300313310784008317000803175C
:100700005002031D852B0030862B0130D000A03015
:10071000031331078400831380080319912B0030E1
:10072000922B01300317D0050313300B982B9A2B13
:1007300000309B2B0130031750050319A42B031322
:100740003108A900B0010317103003133107A03E90
:100750008400831300080317D000103003133107FF
:10076000103E84008317000803175002031DBA2BA4
:100770000030BB2B0130D000103003133107A03EF6
:100780008400831380080319C72B0030C82B013065
:100790000317D0050313300BCE2BD02B0030D12BF9
:1007A0000130031750050319DB2B103003133107F9
:1007B000A900B0010317203003133107A03E8400C5
:1007C000831300080317D000203003133107103EB5
:1007D00084008317000803175002031DF12B00301B
:1007E000F22B0130D000203003133107A03E8400EB
:1007F000831380080319FE2B0030FF2B01300317F1
:10080000D0050313300B052C072C0030082C0130C9
:10081000031750050319122C203003133107A900C8
:10082000B0010317303003133107A03E8400831357
:1008300000080317D000303003133107103E840046
:100840008317000803175002031D282C0030292CA1
:100850000130D000303003133107A03E84008313F1
:1008600080080319352C0030362C01300317D005D1
:100870000313300B3C2C3E2C00303F2C013003176F
:1008800050050319492C303003133107A900B0017A
:10089000031701300313B1073108103C031D742CFA
:1008A000AC012C083F3C031C732C10302C07F800C3
:1008B0000130FA000318FA0A78080317D0007A0802
:1008C000D100A03003132C07840083130008031702
:1008D000D2005008840083135118831752088000F7
:0C08E0000313AC0A512CB101762A63000E
:02400E00713F00
:00000001FF
;PIC16F877A
;CRC=DCE3  CREATED="18-ene-16 12:08"
